{
  "contractName": "Transactions",
  "abi": [
    {
      "inputs": [
        {
          "internalType": "address",
          "name": "contractAddress",
          "type": "address"
        }
      ],
      "stateMutability": "nonpayable",
      "type": "constructor"
    },
    {
      "anonymous": false,
      "inputs": [
        {
          "indexed": true,
          "internalType": "address",
          "name": "owner",
          "type": "address"
        },
        {
          "indexed": true,
          "internalType": "address",
          "name": "spender",
          "type": "address"
        },
        {
          "indexed": false,
          "internalType": "uint256",
          "name": "value",
          "type": "uint256"
        }
      ],
      "name": "Approval",
      "type": "event"
    },
    {
      "anonymous": false,
      "inputs": [
        {
          "indexed": false,
          "internalType": "address",
          "name": "HolderAddress",
          "type": "address"
        },
        {
          "indexed": false,
          "internalType": "uint256",
          "name": "amount",
          "type": "uint256"
        },
        {
          "indexed": false,
          "internalType": "uint256",
          "name": "time",
          "type": "uint256"
        },
        {
          "indexed": false,
          "internalType": "address",
          "name": "verifierAddress",
          "type": "address"
        }
      ],
      "name": "Approve",
      "type": "event"
    },
    {
      "anonymous": false,
      "inputs": [
        {
          "indexed": false,
          "internalType": "address",
          "name": "HolderAddress",
          "type": "address"
        },
        {
          "indexed": false,
          "internalType": "uint256",
          "name": "amount",
          "type": "uint256"
        },
        {
          "indexed": false,
          "internalType": "uint256",
          "name": "time",
          "type": "uint256"
        }
      ],
      "name": "Burn",
      "type": "event"
    },
    {
      "anonymous": false,
      "inputs": [
        {
          "indexed": false,
          "internalType": "address",
          "name": "from",
          "type": "address"
        },
        {
          "indexed": false,
          "internalType": "address",
          "name": "to",
          "type": "address"
        },
        {
          "indexed": false,
          "internalType": "uint256",
          "name": "amount",
          "type": "uint256"
        },
        {
          "indexed": false,
          "internalType": "uint256",
          "name": "time",
          "type": "uint256"
        }
      ],
      "name": "Buy",
      "type": "event"
    },
    {
      "anonymous": false,
      "inputs": [
        {
          "indexed": false,
          "internalType": "address",
          "name": "creditHolderAddress",
          "type": "address"
        },
        {
          "indexed": false,
          "internalType": "uint256",
          "name": "amount",
          "type": "uint256"
        },
        {
          "indexed": false,
          "internalType": "uint256",
          "name": "time",
          "type": "uint256"
        }
      ],
      "name": "Claim",
      "type": "event"
    },
    {
      "anonymous": false,
      "inputs": [
        {
          "indexed": false,
          "internalType": "address",
          "name": "creditHolderAddress",
          "type": "address"
        },
        {
          "indexed": false,
          "internalType": "uint256",
          "name": "amount",
          "type": "uint256"
        },
        {
          "indexed": false,
          "internalType": "uint256",
          "name": "time",
          "type": "uint256"
        }
      ],
      "name": "Sale",
      "type": "event"
    },
    {
      "anonymous": false,
      "inputs": [
        {
          "indexed": true,
          "internalType": "address",
          "name": "from",
          "type": "address"
        },
        {
          "indexed": true,
          "internalType": "address",
          "name": "to",
          "type": "address"
        },
        {
          "indexed": false,
          "internalType": "uint256",
          "name": "value",
          "type": "uint256"
        }
      ],
      "name": "Transfer",
      "type": "event"
    },
    {
      "anonymous": false,
      "inputs": [
        {
          "indexed": false,
          "internalType": "address",
          "name": "add",
          "type": "address"
        },
        {
          "indexed": false,
          "internalType": "address",
          "name": "addedBy",
          "type": "address"
        },
        {
          "indexed": false,
          "internalType": "uint256",
          "name": "time",
          "type": "uint256"
        }
      ],
      "name": "Verifier",
      "type": "event"
    },
    {
      "inputs": [
        {
          "internalType": "address",
          "name": "owner",
          "type": "address"
        },
        {
          "internalType": "address",
          "name": "spender",
          "type": "address"
        }
      ],
      "name": "allowance",
      "outputs": [
        {
          "internalType": "uint256",
          "name": "",
          "type": "uint256"
        }
      ],
      "stateMutability": "view",
      "type": "function",
      "constant": true
    },
    {
      "inputs": [
        {
          "internalType": "address",
          "name": "spender",
          "type": "address"
        },
        {
          "internalType": "uint256",
          "name": "amount",
          "type": "uint256"
        }
      ],
      "name": "approve",
      "outputs": [
        {
          "internalType": "bool",
          "name": "",
          "type": "bool"
        }
      ],
      "stateMutability": "nonpayable",
      "type": "function"
    },
    {
      "inputs": [
        {
          "internalType": "address",
          "name": "account",
          "type": "address"
        }
      ],
      "name": "balanceOf",
      "outputs": [
        {
          "internalType": "uint256",
          "name": "",
          "type": "uint256"
        }
      ],
      "stateMutability": "view",
      "type": "function",
      "constant": true
    },
    {
      "inputs": [],
      "name": "decimals",
      "outputs": [
        {
          "internalType": "uint8",
          "name": "",
          "type": "uint8"
        }
      ],
      "stateMutability": "view",
      "type": "function",
      "constant": true
    },
    {
      "inputs": [
        {
          "internalType": "address",
          "name": "spender",
          "type": "address"
        },
        {
          "internalType": "uint256",
          "name": "subtractedValue",
          "type": "uint256"
        }
      ],
      "name": "decreaseAllowance",
      "outputs": [
        {
          "internalType": "bool",
          "name": "",
          "type": "bool"
        }
      ],
      "stateMutability": "nonpayable",
      "type": "function"
    },
    {
      "inputs": [
        {
          "internalType": "address",
          "name": "spender",
          "type": "address"
        },
        {
          "internalType": "uint256",
          "name": "addedValue",
          "type": "uint256"
        }
      ],
      "name": "increaseAllowance",
      "outputs": [
        {
          "internalType": "bool",
          "name": "",
          "type": "bool"
        }
      ],
      "stateMutability": "nonpayable",
      "type": "function"
    },
    {
      "inputs": [],
      "name": "name",
      "outputs": [
        {
          "internalType": "string",
          "name": "",
          "type": "string"
        }
      ],
      "stateMutability": "view",
      "type": "function",
      "constant": true
    },
    {
      "inputs": [],
      "name": "symbol",
      "outputs": [
        {
          "internalType": "string",
          "name": "",
          "type": "string"
        }
      ],
      "stateMutability": "view",
      "type": "function",
      "constant": true
    },
    {
      "inputs": [],
      "name": "totalSupply",
      "outputs": [
        {
          "internalType": "uint256",
          "name": "",
          "type": "uint256"
        }
      ],
      "stateMutability": "view",
      "type": "function",
      "constant": true
    },
    {
      "inputs": [
        {
          "internalType": "address",
          "name": "to",
          "type": "address"
        },
        {
          "internalType": "uint256",
          "name": "amount",
          "type": "uint256"
        }
      ],
      "name": "transfer",
      "outputs": [
        {
          "internalType": "bool",
          "name": "",
          "type": "bool"
        }
      ],
      "stateMutability": "nonpayable",
      "type": "function"
    },
    {
      "inputs": [
        {
          "internalType": "address",
          "name": "from",
          "type": "address"
        },
        {
          "internalType": "address",
          "name": "to",
          "type": "address"
        },
        {
          "internalType": "uint256",
          "name": "amount",
          "type": "uint256"
        }
      ],
      "name": "transferFrom",
      "outputs": [
        {
          "internalType": "bool",
          "name": "",
          "type": "bool"
        }
      ],
      "stateMutability": "nonpayable",
      "type": "function"
    },
    {
      "inputs": [
        {
          "internalType": "address",
          "name": "verifierAddress",
          "type": "address"
        }
      ],
      "name": "addVerifiers",
      "outputs": [],
      "stateMutability": "nonpayable",
      "type": "function"
    },
    {
      "inputs": [
        {
          "internalType": "uint256",
          "name": "credit",
          "type": "uint256"
        }
      ],
      "name": "claimCarbonToken",
      "outputs": [],
      "stateMutability": "nonpayable",
      "type": "function"
    },
    {
      "inputs": [
        {
          "internalType": "address",
          "name": "cAddress",
          "type": "address"
        }
      ],
      "name": "checkSalesbalance",
      "outputs": [
        {
          "internalType": "uint256",
          "name": "",
          "type": "uint256"
        }
      ],
      "stateMutability": "view",
      "type": "function",
      "constant": true
    },
    {
      "inputs": [
        {
          "internalType": "address",
          "name": "_holder",
          "type": "address"
        }
      ],
      "name": "approveCreditsHeld",
      "outputs": [],
      "stateMutability": "nonpayable",
      "type": "function"
    },
    {
      "inputs": [
        {
          "internalType": "address",
          "name": "_holder",
          "type": "address"
        }
      ],
      "name": "rejectCreditsHeld",
      "outputs": [],
      "stateMutability": "nonpayable",
      "type": "function"
    },
    {
      "inputs": [
        {
          "internalType": "uint256",
          "name": "tokenCount",
          "type": "uint256"
        }
      ],
      "name": "onSale",
      "outputs": [],
      "stateMutability": "nonpayable",
      "type": "function"
    },
    {
      "inputs": [
        {
          "internalType": "address payable",
          "name": "seller",
          "type": "address"
        },
        {
          "internalType": "uint256",
          "name": "tokenC",
          "type": "uint256"
        }
      ],
      "name": "buyToken",
      "outputs": [],
      "stateMutability": "payable",
      "type": "function",
      "payable": true
    },
    {
      "inputs": [
        {
          "internalType": "address",
          "name": "add",
          "type": "address"
        }
      ],
      "name": "checkReward",
      "outputs": [
        {
          "internalType": "uint256",
          "name": "",
          "type": "uint256"
        }
      ],
      "stateMutability": "view",
      "type": "function",
      "constant": true
    },
    {
      "inputs": [
        {
          "internalType": "address payable",
          "name": "add",
          "type": "address"
        }
      ],
      "name": "claimReward",
      "outputs": [],
      "stateMutability": "payable",
      "type": "function",
      "payable": true
    },
    {
      "inputs": [
        {
          "internalType": "address",
          "name": "add",
          "type": "address"
        },
        {
          "internalType": "uint256",
          "name": "tokenToBurn",
          "type": "uint256"
        }
      ],
      "name": "burnToken",
      "outputs": [],
      "stateMutability": "nonpayable",
      "type": "function"
    },
    {
      "inputs": [
        {
          "internalType": "address",
          "name": "holder",
          "type": "address"
        }
      ],
      "name": "sbtBalance",
      "outputs": [
        {
          "internalType": "uint256",
          "name": "",
          "type": "uint256"
        }
      ],
      "stateMutability": "view",
      "type": "function",
      "constant": true
    }
  ],
  "bytecode": "0x608060405260006007553480156200001657600080fd5b5060405162002f3838038062002f3883398181016040528101906200003c91906200029a565b6040518060400160405280600681526020017f436172626f6e00000000000000000000000000000000000000000000000000008152506040518060400160405280600181526020017f43000000000000000000000000000000000000000000000000000000000000008152508160039081620000b9919062000546565b508060049081620000cb919062000546565b50505033600560006101000a81548173ffffffffffffffffffffffffffffffffffffffff021916908373ffffffffffffffffffffffffffffffffffffffff160217905550600160086000600560009054906101000a900473ffffffffffffffffffffffffffffffffffffffff1673ffffffffffffffffffffffffffffffffffffffff1673ffffffffffffffffffffffffffffffffffffffff16815260200190815260200160002060006101000a81548160ff02191690831515021790555080600660006101000a81548173ffffffffffffffffffffffffffffffffffffffff021916908373ffffffffffffffffffffffffffffffffffffffff1602179055507f63a0a4720312f16a5523633c832ebeb7e8fe06003c36b1ab438e2a2bde367d69600560009054906101000a900473ffffffffffffffffffffffffffffffffffffffff16334260405162000221939291906200064f565b60405180910390a1506200068c565b600080fd5b600073ffffffffffffffffffffffffffffffffffffffff82169050919050565b6000620002628262000235565b9050919050565b620002748162000255565b81146200028057600080fd5b50565b600081519050620002948162000269565b92915050565b600060208284031215620002b357620002b262000230565b5b6000620002c38482850162000283565b91505092915050565b600081519050919050565b7f4e487b7100000000000000000000000000000000000000000000000000000000600052604160045260246000fd5b7f4e487b7100000000000000000000000000000000000000000000000000000000600052602260045260246000fd5b600060028204905060018216806200034e57607f821691505b60208210810362000364576200036362000306565b5b50919050565b60008190508160005260206000209050919050565b60006020601f8301049050919050565b600082821b905092915050565b600060088302620003ce7fffffffffffffffffffffffffffffffffffffffffffffffffffffffffffffffff826200038f565b620003da86836200038f565b95508019841693508086168417925050509392505050565b6000819050919050565b6000819050919050565b600062000427620004216200041b84620003f2565b620003fc565b620003f2565b9050919050565b6000819050919050565b620004438362000406565b6200045b62000452826200042e565b8484546200039c565b825550505050565b600090565b6200047262000463565b6200047f81848462000438565b505050565b5b81811015620004a7576200049b60008262000468565b60018101905062000485565b5050565b601f821115620004f657620004c0816200036a565b620004cb846200037f565b81016020851015620004db578190505b620004f3620004ea856200037f565b83018262000484565b50505b505050565b600082821c905092915050565b60006200051b60001984600802620004fb565b1980831691505092915050565b600062000536838362000508565b9150826002028217905092915050565b6200055182620002cc565b67ffffffffffffffff8111156200056d576200056c620002d7565b5b62000579825462000335565b62000586828285620004ab565b600060209050601f831160018114620005be5760008415620005a9578287015190505b620005b5858262000528565b86555062000625565b601f198416620005ce866200036a565b60005b82811015620005f857848901518255600182019150602085019450602081019050620005d1565b8683101562000618578489015162000614601f89168262000508565b8355505b6001600288020188555050505b505050505050565b620006388162000255565b82525050565b6200064981620003f2565b82525050565b60006060820190506200066660008301866200062d565b6200067560208301856200062d565b6200068460408301846200063e565b949350505050565b61289c806200069c6000396000f3fe6080604052600436106101355760003560e01c806378cf532d116100ab578063b43a76f11161006f578063b43a76f114610451578063b9989de01461047a578063c3c90e64146104b7578063d1df306c146104f4578063d279c1911461051d578063dd62ed3e1461053957610135565b806378cf532d1461035a5780637913830f1461038357806395d89b41146103ac578063a457c2d7146103d7578063a9059cbb1461041457610135565b806323b872dd116100fd57806323b872dd146102335780632b3c228814610270578063313ce5671461029957806339509351146102c457806368f8fc101461030157806370a082311461031d57610135565b806305431db11461013a57806306fdde03146101775780630777dd9a146101a2578063095ea7b3146101cb57806318160ddd14610208575b600080fd5b34801561014657600080fd5b50610161600480360381019061015c9190611c5d565b610576565b60405161016e9190611ca3565b60405180910390f35b34801561018357600080fd5b5061018c61061b565b6040516101999190611d4e565b60405180910390f35b3480156101ae57600080fd5b506101c960048036038101906101c49190611d9c565b6106ad565b005b3480156101d757600080fd5b506101f260048036038101906101ed9190611dc9565b610741565b6040516101ff9190611e24565b60405180910390f35b34801561021457600080fd5b5061021d610764565b60405161022a9190611ca3565b60405180910390f35b34801561023f57600080fd5b5061025a60048036038101906102559190611e3f565b61076e565b6040516102679190611e24565b60405180910390f35b34801561027c57600080fd5b5061029760048036038101906102929190611c5d565b61079d565b005b3480156102a557600080fd5b506102ae610907565b6040516102bb9190611eae565b60405180910390f35b3480156102d057600080fd5b506102eb60048036038101906102e69190611dc9565b610910565b6040516102f89190611e24565b60405180910390f35b61031b60048036038101906103169190611f07565b610947565b005b34801561032957600080fd5b50610344600480360381019061033f9190611c5d565b610b39565b6040516103519190611ca3565b60405180910390f35b34801561036657600080fd5b50610381600480360381019061037c9190611c5d565b610b81565b005b34801561038f57600080fd5b506103aa60048036038101906103a59190611c5d565b610c74565b005b3480156103b857600080fd5b506103c1610d19565b6040516103ce9190611d4e565b60405180910390f35b3480156103e357600080fd5b506103fe60048036038101906103f99190611dc9565b610dab565b60405161040b9190611e24565b60405180910390f35b34801561042057600080fd5b5061043b60048036038101906104369190611dc9565b610e22565b6040516104489190611e24565b60405180910390f35b34801561045d57600080fd5b5061047860048036038101906104739190611d9c565b610e45565b005b34801561048657600080fd5b506104a1600480360381019061049c9190611c5d565b610f82565b6040516104ae9190611ca3565b60405180910390f35b3480156104c357600080fd5b506104de60048036038101906104d99190611c5d565b610fcb565b6040516104eb9190611ca3565b60405180910390f35b34801561050057600080fd5b5061051b60048036038101906105169190611dc9565b611014565b005b61053760048036038101906105329190611f47565b61129b565b005b34801561054557600080fd5b50610560600480360381019061055b9190611f74565b611358565b60405161056d9190611ca3565b60405180910390f35b6000600660009054906101000a900473ffffffffffffffffffffffffffffffffffffffff1673ffffffffffffffffffffffffffffffffffffffff166370a08231836040518263ffffffff1660e01b81526004016105d39190611fc3565b602060405180830381865afa1580156105f0573d6000803e3d6000fd5b505050506040513d601f19601f820116820180604052508101906106149190611ff3565b9050919050565b60606003805461062a9061204f565b80601f01602080910402602001604051908101604052809291908181526020018280546106569061204f565b80156106a35780601f10610678576101008083540402835291602001916106a3565b820191906000526020600020905b81548152906001019060200180831161068657829003601f168201915b5050505050905090565b80600960003373ffffffffffffffffffffffffffffffffffffffff1673ffffffffffffffffffffffffffffffffffffffff16815260200190815260200160002060008282546106fc91906120af565b925050819055507f34fcbac0073d7c3d388e51312faf357774904998eeb8fca628b9e6f65ee1cbf7338242604051610736939291906120e3565b60405180910390a150565b60008061074c6113df565b90506107598185856113e7565b600191505092915050565b6000600254905090565b6000806107796113df565b90506107868582856115b0565b61079185858561163c565b60019150509392505050565b60011515600860003373ffffffffffffffffffffffffffffffffffffffff1673ffffffffffffffffffffffffffffffffffffffff16815260200190815260200160002060009054906101000a900460ff161515146107fa57600080fd5b61084381600960008473ffffffffffffffffffffffffffffffffffffffff1673ffffffffffffffffffffffffffffffffffffffff168152602001908152602001600020546118bb565b7f0a07422c9b6de1a789dc69a18954538a48411449a9216aaee614fd4d0dfb6cd781600960008473ffffffffffffffffffffffffffffffffffffffff1673ffffffffffffffffffffffffffffffffffffffff1681526020019081526020016000205442336040516108b7949392919061211a565b60405180910390a16000600960008373ffffffffffffffffffffffffffffffffffffffff1673ffffffffffffffffffffffffffffffffffffffff1681526020019081526020016000208190555050565b60006012905090565b60008061091b6113df565b905061093c81858561092d8589611358565b61093791906120af565b6113e7565b600191505092915050565b80600a60008473ffffffffffffffffffffffffffffffffffffffff1673ffffffffffffffffffffffffffffffffffffffff16815260200190815260200160002054101561099357600080fd5b3373ffffffffffffffffffffffffffffffffffffffff168273ffffffffffffffffffffffffffffffffffffffff16036109cb57600080fd5b3073ffffffffffffffffffffffffffffffffffffffff166323b872dd8333846040518463ffffffff1660e01b8152600401610a08939291906121be565b6020604051808303816000875af1158015610a27573d6000803e3d6000fd5b505050506040513d601f19601f82011682018060405250810190610a4b9190612221565b5080600a60008473ffffffffffffffffffffffffffffffffffffffff1673ffffffffffffffffffffffffffffffffffffffff1681526020019081526020016000206000828254610a9b919061224e565b9250508190555034600c60008473ffffffffffffffffffffffffffffffffffffffff1673ffffffffffffffffffffffffffffffffffffffff1681526020019081526020016000206000828254610af191906120af565b925050819055507f89f5adc174562e07c9c9b1cae7109bbecb21cf9d1b2847e550042b8653c54a0e82338342604051610b2d9493929190612282565b60405180910390a15050565b60008060008373ffffffffffffffffffffffffffffffffffffffff1673ffffffffffffffffffffffffffffffffffffffff168152602001908152602001600020549050919050565b60011515600860003373ffffffffffffffffffffffffffffffffffffffff1673ffffffffffffffffffffffffffffffffffffffff16815260200190815260200160002060009054906101000a900460ff16151514610bde57600080fd5b6001600860008373ffffffffffffffffffffffffffffffffffffffff1673ffffffffffffffffffffffffffffffffffffffff16815260200190815260200160002060006101000a81548160ff0219169083151502179055507f63a0a4720312f16a5523633c832ebeb7e8fe06003c36b1ab438e2a2bde367d69813342604051610c69939291906122c7565b60405180910390a150565b60011515600860003373ffffffffffffffffffffffffffffffffffffffff1673ffffffffffffffffffffffffffffffffffffffff16815260200190815260200160002060009054906101000a900460ff16151514610cd157600080fd5b6000600960008373ffffffffffffffffffffffffffffffffffffffff1673ffffffffffffffffffffffffffffffffffffffff1681526020019081526020016000208190555050565b606060048054610d289061204f565b80601f0160208091040260200160405190810160405280929190818152602001828054610d549061204f565b8015610da15780601f10610d7657610100808354040283529160200191610da1565b820191906000526020600020905b815481529060010190602001808311610d8457829003601f168201915b5050505050905090565b600080610db66113df565b90506000610dc48286611358565b905083811015610e09576040517f08c379a0000000000000000000000000000000000000000000000000000000008152600401610e0090612370565b60405180910390fd5b610e1682868684036113e7565b60019250505092915050565b600080610e2d6113df565b9050610e3a81858561163c565b600191505092915050565b610e4e33610b39565b81600a60003373ffffffffffffffffffffffffffffffffffffffff1673ffffffffffffffffffffffffffffffffffffffff16815260200190815260200160002054610e9991906120af565b1115610ea457600080fd5b80600a60003373ffffffffffffffffffffffffffffffffffffffff1673ffffffffffffffffffffffffffffffffffffffff1681526020019081526020016000206000828254610ef391906120af565b925050819055507f0f4a9c70987615d71a1085cae3c6fb0c2855f81a5ec62cb7ee3136d5407e357c338242604051610f2d939291906120e3565b60405180910390a1610f7e30600a60003373ffffffffffffffffffffffffffffffffffffffff1673ffffffffffffffffffffffffffffffffffffffff16815260200190815260200160002054610741565b5050565b6000600a60008373ffffffffffffffffffffffffffffffffffffffff1673ffffffffffffffffffffffffffffffffffffffff168152602001908152602001600020549050919050565b6000600c60008373ffffffffffffffffffffffffffffffffffffffff1673ffffffffffffffffffffffffffffffffffffffff168152602001908152602001600020549050919050565b60011515600860003373ffffffffffffffffffffffffffffffffffffffff1673ffffffffffffffffffffffffffffffffffffffff16815260200190815260200160002060009054906101000a900460ff1615151461107157600080fd5b80600a60008473ffffffffffffffffffffffffffffffffffffffff1673ffffffffffffffffffffffffffffffffffffffff168152602001908152602001600020546110bb84610b39565b6110c5919061224e565b10156110d057600080fd5b80600b60008473ffffffffffffffffffffffffffffffffffffffff1673ffffffffffffffffffffffffffffffffffffffff168152602001908152602001600020600082825461111f91906120af565b925050819055506005600b60008473ffffffffffffffffffffffffffffffffffffffff1673ffffffffffffffffffffffffffffffffffffffff168152602001908152602001600020541061125257600660009054906101000a900473ffffffffffffffffffffffffffffffffffffffff1673ffffffffffffffffffffffffffffffffffffffff166384dc5b55836040518263ffffffff1660e01b81526004016111c89190611fc3565b600060405180830381600087803b1580156111e257600080fd5b505af11580156111f6573d6000803e3d6000fd5b505050506005600b60008473ffffffffffffffffffffffffffffffffffffffff1673ffffffffffffffffffffffffffffffffffffffff168152602001908152602001600020600082825461124a919061224e565b925050819055505b61125c8282611a1a565b7f49995e5dd6158cf69ad3e9777c46755a1a826a446c6416992167462dad033b2a82824260405161128f939291906120e3565b60405180910390a15050565b8073ffffffffffffffffffffffffffffffffffffffff166108fc600c60008473ffffffffffffffffffffffffffffffffffffffff1673ffffffffffffffffffffffffffffffffffffffff168152602001908152602001600020549081150290604051600060405180830381858888f19350505050506000600c60008373ffffffffffffffffffffffffffffffffffffffff1673ffffffffffffffffffffffffffffffffffffffff1681526020019081526020016000208190555050565b6000600160008473ffffffffffffffffffffffffffffffffffffffff1673ffffffffffffffffffffffffffffffffffffffff16815260200190815260200160002060008373ffffffffffffffffffffffffffffffffffffffff1673ffffffffffffffffffffffffffffffffffffffff16815260200190815260200160002054905092915050565b600033905090565b600073ffffffffffffffffffffffffffffffffffffffff168373ffffffffffffffffffffffffffffffffffffffff1603611456576040517f08c379a000000000000000000000000000000000000000000000000000000000815260040161144d90612402565b60405180910390fd5b600073ffffffffffffffffffffffffffffffffffffffff168273ffffffffffffffffffffffffffffffffffffffff16036114c5576040517f08c379a00000000000000000000000000000000000000000000000000000000081526004016114bc90612494565b60405180910390fd5b80600160008573ffffffffffffffffffffffffffffffffffffffff1673ffffffffffffffffffffffffffffffffffffffff16815260200190815260200160002060008473ffffffffffffffffffffffffffffffffffffffff1673ffffffffffffffffffffffffffffffffffffffff168152602001908152602001600020819055508173ffffffffffffffffffffffffffffffffffffffff168373ffffffffffffffffffffffffffffffffffffffff167f8c5be1e5ebec7d5bd14f71427d1e84f3dd0314c0f7b2291e5b200ac8c7c3b925836040516115a39190611ca3565b60405180910390a3505050565b60006115bc8484611358565b90507fffffffffffffffffffffffffffffffffffffffffffffffffffffffffffffffff81146116365781811015611628576040517f08c379a000000000000000000000000000000000000000000000000000000000815260040161161f90612500565b60405180910390fd5b61163584848484036113e7565b5b50505050565b600073ffffffffffffffffffffffffffffffffffffffff168373ffffffffffffffffffffffffffffffffffffffff16036116ab576040517f08c379a00000000000000000000000000000000000000000000000000000000081526004016116a290612592565b60405180910390fd5b600073ffffffffffffffffffffffffffffffffffffffff168273ffffffffffffffffffffffffffffffffffffffff160361171a576040517f08c379a000000000000000000000000000000000000000000000000000000000815260040161171190612624565b60405180910390fd5b611725838383611bf0565b60008060008573ffffffffffffffffffffffffffffffffffffffff1673ffffffffffffffffffffffffffffffffffffffff168152602001908152602001600020549050818110156117ab576040517f08c379a00000000000000000000000000000000000000000000000000000000081526004016117a2906126b6565b60405180910390fd5b8181036000808673ffffffffffffffffffffffffffffffffffffffff1673ffffffffffffffffffffffffffffffffffffffff16815260200190815260200160002081905550816000808573ffffffffffffffffffffffffffffffffffffffff1673ffffffffffffffffffffffffffffffffffffffff168152602001908152602001600020600082825461183e91906120af565b925050819055508273ffffffffffffffffffffffffffffffffffffffff168473ffffffffffffffffffffffffffffffffffffffff167fddf252ad1be2c89b69c2b068fc378daa952ba7f163c4a11628f55a4df523b3ef846040516118a29190611ca3565b60405180910390a36118b5848484611bf5565b50505050565b600073ffffffffffffffffffffffffffffffffffffffff168273ffffffffffffffffffffffffffffffffffffffff160361192a576040517f08c379a000000000000000000000000000000000000000000000000000000000815260040161192190612722565b60405180910390fd5b61193660008383611bf0565b806002600082825461194891906120af565b92505081905550806000808473ffffffffffffffffffffffffffffffffffffffff1673ffffffffffffffffffffffffffffffffffffffff168152602001908152602001600020600082825461199d91906120af565b925050819055508173ffffffffffffffffffffffffffffffffffffffff16600073ffffffffffffffffffffffffffffffffffffffff167fddf252ad1be2c89b69c2b068fc378daa952ba7f163c4a11628f55a4df523b3ef83604051611a029190611ca3565b60405180910390a3611a1660008383611bf5565b5050565b600073ffffffffffffffffffffffffffffffffffffffff168273ffffffffffffffffffffffffffffffffffffffff1603611a89576040517f08c379a0000000000000000000000000000000000000000000000000000000008152600401611a80906127b4565b60405180910390fd5b611a9582600083611bf0565b60008060008473ffffffffffffffffffffffffffffffffffffffff1673ffffffffffffffffffffffffffffffffffffffff16815260200190815260200160002054905081811015611b1b576040517f08c379a0000000000000000000000000000000000000000000000000000000008152600401611b1290612846565b60405180910390fd5b8181036000808573ffffffffffffffffffffffffffffffffffffffff1673ffffffffffffffffffffffffffffffffffffffff168152602001908152602001600020819055508160026000828254611b72919061224e565b92505081905550600073ffffffffffffffffffffffffffffffffffffffff168373ffffffffffffffffffffffffffffffffffffffff167fddf252ad1be2c89b69c2b068fc378daa952ba7f163c4a11628f55a4df523b3ef84604051611bd79190611ca3565b60405180910390a3611beb83600084611bf5565b505050565b505050565b505050565b600080fd5b600073ffffffffffffffffffffffffffffffffffffffff82169050919050565b6000611c2a82611bff565b9050919050565b611c3a81611c1f565b8114611c4557600080fd5b50565b600081359050611c5781611c31565b92915050565b600060208284031215611c7357611c72611bfa565b5b6000611c8184828501611c48565b91505092915050565b6000819050919050565b611c9d81611c8a565b82525050565b6000602082019050611cb86000830184611c94565b92915050565b600081519050919050565b600082825260208201905092915050565b60005b83811015611cf8578082015181840152602081019050611cdd565b60008484015250505050565b6000601f19601f8301169050919050565b6000611d2082611cbe565b611d2a8185611cc9565b9350611d3a818560208601611cda565b611d4381611d04565b840191505092915050565b60006020820190508181036000830152611d688184611d15565b905092915050565b611d7981611c8a565b8114611d8457600080fd5b50565b600081359050611d9681611d70565b92915050565b600060208284031215611db257611db1611bfa565b5b6000611dc084828501611d87565b91505092915050565b60008060408385031215611de057611ddf611bfa565b5b6000611dee85828601611c48565b9250506020611dff85828601611d87565b9150509250929050565b60008115159050919050565b611e1e81611e09565b82525050565b6000602082019050611e396000830184611e15565b92915050565b600080600060608486031215611e5857611e57611bfa565b5b6000611e6686828701611c48565b9350506020611e7786828701611c48565b9250506040611e8886828701611d87565b9150509250925092565b600060ff82169050919050565b611ea881611e92565b82525050565b6000602082019050611ec36000830184611e9f565b92915050565b6000611ed482611bff565b9050919050565b611ee481611ec9565b8114611eef57600080fd5b50565b600081359050611f0181611edb565b92915050565b60008060408385031215611f1e57611f1d611bfa565b5b6000611f2c85828601611ef2565b9250506020611f3d85828601611d87565b9150509250929050565b600060208284031215611f5d57611f5c611bfa565b5b6000611f6b84828501611ef2565b91505092915050565b60008060408385031215611f8b57611f8a611bfa565b5b6000611f9985828601611c48565b9250506020611faa85828601611c48565b9150509250929050565b611fbd81611c1f565b82525050565b6000602082019050611fd86000830184611fb4565b92915050565b600081519050611fed81611d70565b92915050565b60006020828403121561200957612008611bfa565b5b600061201784828501611fde565b91505092915050565b7f4e487b7100000000000000000000000000000000000000000000000000000000600052602260045260246000fd5b6000600282049050600182168061206757607f821691505b60208210810361207a57612079612020565b5b50919050565b7f4e487b7100000000000000000000000000000000000000000000000000000000600052601160045260246000fd5b60006120ba82611c8a565b91506120c583611c8a565b92508282019050808211156120dd576120dc612080565b5b92915050565b60006060820190506120f86000830186611fb4565b6121056020830185611c94565b6121126040830184611c94565b949350505050565b600060808201905061212f6000830187611fb4565b61213c6020830186611c94565b6121496040830185611c94565b6121566060830184611fb4565b95945050505050565b6000819050919050565b600061218461217f61217a84611bff565b61215f565b611bff565b9050919050565b600061219682612169565b9050919050565b60006121a88261218b565b9050919050565b6121b88161219d565b82525050565b60006060820190506121d360008301866121af565b6121e06020830185611fb4565b6121ed6040830184611c94565b949350505050565b6121fe81611e09565b811461220957600080fd5b50565b60008151905061221b816121f5565b92915050565b60006020828403121561223757612236611bfa565b5b60006122458482850161220c565b91505092915050565b600061225982611c8a565b915061226483611c8a565b925082820390508181111561227c5761227b612080565b5b92915050565b600060808201905061229760008301876121af565b6122a46020830186611fb4565b6122b16040830185611c94565b6122be6060830184611c94565b95945050505050565b60006060820190506122dc6000830186611fb4565b6122e96020830185611fb4565b6122f66040830184611c94565b949350505050565b7f45524332303a2064656372656173656420616c6c6f77616e63652062656c6f7760008201527f207a65726f000000000000000000000000000000000000000000000000000000602082015250565b600061235a602583611cc9565b9150612365826122fe565b604082019050919050565b600060208201905081810360008301526123898161234d565b9050919050565b7f45524332303a20617070726f76652066726f6d20746865207a65726f2061646460008201527f7265737300000000000000000000000000000000000000000000000000000000602082015250565b60006123ec602483611cc9565b91506123f782612390565b604082019050919050565b6000602082019050818103600083015261241b816123df565b9050919050565b7f45524332303a20617070726f766520746f20746865207a65726f20616464726560008201527f7373000000000000000000000000000000000000000000000000000000000000602082015250565b600061247e602283611cc9565b915061248982612422565b604082019050919050565b600060208201905081810360008301526124ad81612471565b9050919050565b7f45524332303a20696e73756666696369656e7420616c6c6f77616e6365000000600082015250565b60006124ea601d83611cc9565b91506124f5826124b4565b602082019050919050565b60006020820190508181036000830152612519816124dd565b9050919050565b7f45524332303a207472616e736665722066726f6d20746865207a65726f20616460008201527f6472657373000000000000000000000000000000000000000000000000000000602082015250565b600061257c602583611cc9565b915061258782612520565b604082019050919050565b600060208201905081810360008301526125ab8161256f565b9050919050565b7f45524332303a207472616e7366657220746f20746865207a65726f206164647260008201527f6573730000000000000000000000000000000000000000000000000000000000602082015250565b600061260e602383611cc9565b9150612619826125b2565b604082019050919050565b6000602082019050818103600083015261263d81612601565b9050919050565b7f45524332303a207472616e7366657220616d6f756e742065786365656473206260008201527f616c616e63650000000000000000000000000000000000000000000000000000602082015250565b60006126a0602683611cc9565b91506126ab82612644565b604082019050919050565b600060208201905081810360008301526126cf81612693565b9050919050565b7f45524332303a206d696e7420746f20746865207a65726f206164647265737300600082015250565b600061270c601f83611cc9565b9150612717826126d6565b602082019050919050565b6000602082019050818103600083015261273b816126ff565b9050919050565b7f45524332303a206275726e2066726f6d20746865207a65726f2061646472657360008201527f7300000000000000000000000000000000000000000000000000000000000000602082015250565b600061279e602183611cc9565b91506127a982612742565b604082019050919050565b600060208201905081810360008301526127cd81612791565b9050919050565b7f45524332303a206275726e20616d6f756e7420657863656564732062616c616e60008201527f6365000000000000000000000000000000000000000000000000000000000000602082015250565b6000612830602283611cc9565b915061283b826127d4565b604082019050919050565b6000602082019050818103600083015261285f81612823565b905091905056fea2646970667358221220b4ccbf8d395845fc1a43913a5f57b451242d26c1ace989e779feca07cfb680a564736f6c63430008110033",
  "immutableReferences": {},
  "source": "    pragma solidity ^0.8.0;\npragma experimental ABIEncoderV2;\n\nimport '../node_modules/@openzeppelin/contracts/token/ERC20/ERC20.sol';\nimport './SBT5484.sol';\n\n//SPDX-License-Identifier: UNLICENSED\ncontract Transactions is ERC20 {\n\n    address admin;\n    Soulbound soulbound ;\n    uint id = 0;\n\n    constructor(address contractAddress) ERC20(\"Carbon\", \"C\") public {\n        admin = msg.sender;\n        verifier[admin] = true;\n        soulbound = Soulbound(contractAddress);\n        emit Verifier(admin, msg.sender, block.timestamp);\n    }\n\n    event Claim(address creditHolderAddress, uint amount, uint256 time);\n    event Approve(address HolderAddress, uint amount, uint256 time, address verifierAddress);\n    event Burn(address HolderAddress, uint amount, uint256 time);\n    event Sale(address creditHolderAddress, uint amount, uint256 time);\n    event Buy(address from, address to , uint amount, uint256 time);\n    event Verifier(address add, address addedBy, uint256 time);\n\n    mapping (address => bool) verifier;\n    mapping (address => uint) claims;\n    mapping (address => uint) sales;\n    mapping (address => uint) burn;\n    mapping (address => uint) reward;\n    \n    modifier onlyVerifier() {\n        require(verifier[msg.sender] == true);\n        _;\n    }\n\n    function addVerifiers(address verifierAddress) public onlyVerifier{\n        verifier[verifierAddress]= true;\n        emit Verifier(verifierAddress, msg.sender, block.timestamp);\n    }\n\n    // seller claims credit token:\n    function claimCarbonToken(uint credit) public {\n        claims[msg.sender] += credit;\n        emit Claim(msg.sender, credit, block.timestamp);\n     }\n\n    function checkSalesbalance(address cAddress) public view returns(uint){\n        return sales[cAddress];\n    }\n\n    // Approver approves credit holder: \n    function approveCreditsHeld(address _holder) public onlyVerifier {\n        _mint(_holder, claims[_holder]);\n        emit Approve(_holder, claims[_holder] , block.timestamp , msg.sender);\n        claims[_holder] = 0;\n    }\n\n    // Approver rejects credit holder: \n    function rejectCreditsHeld(address _holder) public onlyVerifier {\n        // emit Reject(_holder, claims[_holder] , block.timestamp, msg.sender);\n        claims[_holder] = 0 ;\n    }\n\n    // Seller puts credits to sale:\n    function onSale(uint tokenCount) public {\n        require(sales[msg.sender] + tokenCount <= balanceOf(msg.sender)); \n        sales[msg.sender] += tokenCount;\n        emit Sale(msg.sender, tokenCount, block.timestamp);\n        approve(address(this), sales[msg.sender]);\n    }\n\n    // Buyer buys token:\n    function buyToken(address payable seller, uint tokenC) public payable{\n        require(sales[seller] >= tokenC);\n        require(seller != msg.sender);\n        this.transferFrom(seller, msg.sender, tokenC);\n        sales[seller] -= tokenC;\n        reward[seller] += msg.value;\n        emit Buy(seller, msg.sender, tokenC, block.timestamp);\n    }\n\n    function checkReward(address add)  public view returns(uint){\n        return reward[add];\n    }   \n\n    function claimReward(address payable add ) public payable {\n        add.send(reward[add]);\n        reward[add] = 0;\n    }\n\n    // Approver burns token:\n    function burnToken( address add, uint tokenToBurn) public onlyVerifier {\n        require(balanceOf(add) - sales[add] >= tokenToBurn);\n        burn[add] += tokenToBurn;\n        if(burn[add] >= 5)\n        {\n            soulbound.createSBT(add);\n            burn[add] -= 5;\n        }   \n        _burn(add, tokenToBurn);\n        emit Burn(add, tokenToBurn, block.timestamp); \n    }\n\n    function sbtBalance(address holder) public view returns(uint256){\n        return soulbound.balanceOf(holder);\n    }\n\n}",
  "sourcePath": "/home/kba/Desktop/farhana/carbon-offsetTruffle/contracts/transactions.sol",
  "compiler": {
    "name": "solc",
    "version": "0.8.17+commit.8df45f5f.Emscripten.clang"
  },
  "schemaVersion": "3.4.10",
  "updatedAt": "2022-11-08T03:52:49.370Z",
  "networkType": "ethereum",
  "devdoc": {
    "kind": "dev",
    "methods": {
      "allowance(address,address)": {
        "details": "See {IERC20-allowance}."
      },
      "approve(address,uint256)": {
        "details": "See {IERC20-approve}. NOTE: If `amount` is the maximum `uint256`, the allowance is not updated on `transferFrom`. This is semantically equivalent to an infinite approval. Requirements: - `spender` cannot be the zero address."
      },
      "balanceOf(address)": {
        "details": "See {IERC20-balanceOf}."
      },
      "decimals()": {
        "details": "Returns the number of decimals used to get its user representation. For example, if `decimals` equals `2`, a balance of `505` tokens should be displayed to a user as `5.05` (`505 / 10 ** 2`). Tokens usually opt for a value of 18, imitating the relationship between Ether and Wei. This is the value {ERC20} uses, unless this function is overridden; NOTE: This information is only used for _display_ purposes: it in no way affects any of the arithmetic of the contract, including {IERC20-balanceOf} and {IERC20-transfer}."
      },
      "decreaseAllowance(address,uint256)": {
        "details": "Atomically decreases the allowance granted to `spender` by the caller. This is an alternative to {approve} that can be used as a mitigation for problems described in {IERC20-approve}. Emits an {Approval} event indicating the updated allowance. Requirements: - `spender` cannot be the zero address. - `spender` must have allowance for the caller of at least `subtractedValue`."
      },
      "increaseAllowance(address,uint256)": {
        "details": "Atomically increases the allowance granted to `spender` by the caller. This is an alternative to {approve} that can be used as a mitigation for problems described in {IERC20-approve}. Emits an {Approval} event indicating the updated allowance. Requirements: - `spender` cannot be the zero address."
      },
      "name()": {
        "details": "Returns the name of the token."
      },
      "symbol()": {
        "details": "Returns the symbol of the token, usually a shorter version of the name."
      },
      "totalSupply()": {
        "details": "See {IERC20-totalSupply}."
      },
      "transfer(address,uint256)": {
        "details": "See {IERC20-transfer}. Requirements: - `to` cannot be the zero address. - the caller must have a balance of at least `amount`."
      },
      "transferFrom(address,address,uint256)": {
        "details": "See {IERC20-transferFrom}. Emits an {Approval} event indicating the updated allowance. This is not required by the EIP. See the note at the beginning of {ERC20}. NOTE: Does not update the allowance if the current allowance is the maximum `uint256`. Requirements: - `from` and `to` cannot be the zero address. - `from` must have a balance of at least `amount`. - the caller must have allowance for ``from``'s tokens of at least `amount`."
      }
    },
    "version": 1
  },
  "userdoc": {
    "kind": "user",
    "methods": {},
    "version": 1
  }
}